{
  "contractName": "BetPredictorCreator",
  "abi": [
    {
      "constant": true,
      "inputs": [],
      "name": "test",
      "outputs": [
        {
          "name": "",
          "type": "string"
        }
      ],
      "payable": false,
      "stateMutability": "view",
      "type": "function"
    },
    {
      "constant": false,
      "inputs": [
        {
          "name": "betPrice",
          "type": "uint256"
        },
        {
          "name": "betAmount",
          "type": "uint256"
        },
        {
          "name": "deadline",
          "type": "uint256"
        }
      ],
      "name": "createBet",
      "outputs": [
        {
          "name": "contractAddress",
          "type": "address"
        }
      ],
      "payable": false,
      "stateMutability": "nonpayable",
      "type": "function"
    }
  ],
  "bytecode": "0x60806040526040518060400160405280600581526020017f68656c6c6f0000000000000000000000000000000000000000000000000000008152506000908051906020019061004f929190610062565b5034801561005c57600080fd5b50610107565b828054600181600116156101000203166002900490600052602060002090601f016020900481019282601f106100a357805160ff19168380011785556100d1565b828001600101855582156100d1579182015b828111156100d05782518255916020019190600101906100b5565b5b5090506100de91906100e2565b5090565b61010491905b808211156101005760008160009055506001016100e8565b5090565b90565b610f81806101166000396000f3fe608060405234801561001057600080fd5b50600436106100365760003560e01c80639062ce7d1461003b578063f8a8fd6d146100bd575b600080fd5b61007b6004803603606081101561005157600080fd5b81019080803590602001909291908035906020019092919080359060200190929190505050610140565b604051808273ffffffffffffffffffffffffffffffffffffffff1673ffffffffffffffffffffffffffffffffffffffff16815260200191505060405180910390f35b6100c5610194565b6040518080602001828103825283818151815260200191508051906020019080838360005b838110156101055780820151818401526020810190506100ea565b50505050905090810190601f1680156101325780820380516001836020036101000a031916815260200191505b509250505060405180910390f35b60008084848460405161015290610232565b808481526020018381526020018281526020019350505050604051809103906000f080158015610186573d6000803e3d6000fd5b509050809150509392505050565b60008054600181600116156101000203166002900480601f01602080910402602001604051908101604052809291908181526020018280546001816001161561010002031660029004801561022a5780601f106101ff5761010080835404028352916020019161022a565b820191906000526020600020905b81548152906001019060200180831161020d57829003601f168201915b505050505081565b610d16806102408339019056fe608060405234801561001057600080fd5b50604051606080610d168339810180604052606081101561003057600080fd5b8101908080519060200190929190805190602001909291908051906020019092919050505082600581905550816007819055508060098190555033600a60006101000a81548173ffffffffffffffffffffffffffffffffffffffff021916908373ffffffffffffffffffffffffffffffffffffffff1602179055506100b96100c160201b60201c565b5050506100cb565b6000600681905550565b610c3c806100da6000396000f3fe6080604052600436106100fe5760003560e01c8063ad8d422f11610095578063d408228111610064578063d4082281146104eb578063e00539b114610542578063e3282f3f14610571578063ef4295fe1461057b578063f0e1ba2c146105aa576100fe565b8063ad8d422f14610437578063cfd8a17514610466578063d24257c014610491578063d2757459146104bc576100fe565b8063557ed1ba116100d1578063557ed1ba146103805780638f84aa09146103ab578063a56ba5b614610402578063a596ebc61461040c576100fe565b806327dc297e1461010357806329dcb0cf146101d557806338bbfa50146102005780633ccfd60b14610369575b600080fd5b34801561010f57600080fd5b506101d36004803603604081101561012657600080fd5b81019080803590602001909291908035906020019064010000000081111561014d57600080fd5b82018360208201111561015f57600080fd5b8035906020019184600183028401116401000000008311171561018157600080fd5b91908080601f016020809104026020016040519081016040528093929190818152602001838380828437600081840152601f19601f8201169050808301925050505050505091929192905050506105d5565b005b3480156101e157600080fd5b506101ea610618565b6040518082815260200191505060405180910390f35b34801561020c57600080fd5b506103676004803603606081101561022357600080fd5b81019080803590602001909291908035906020019064010000000081111561024a57600080fd5b82018360208201111561025c57600080fd5b8035906020019184600183028401116401000000008311171561027e57600080fd5b91908080601f016020809104026020016040519081016040528093929190818152602001838380828437600081840152601f19601f820116905080830192505050505050509192919290803590602001906401000000008111156102e157600080fd5b8201836020820111156102f357600080fd5b8035906020019184600183028401116401000000008311171561031557600080fd5b91908080601f016020809104026020016040519081016040528093929190818152602001838380828437600081840152601f19601f82011690508083019250505050505050919291929050505061061e565b005b34801561037557600080fd5b5061037e610641565b005b34801561038c57600080fd5b506103956109d8565b6040518082815260200191505060405180910390f35b3480156103b757600080fd5b506103c06109e0565b604051808273ffffffffffffffffffffffffffffffffffffffff1673ffffffffffffffffffffffffffffffffffffffff16815260200191505060405180910390f35b61040a610a06565b005b34801561041857600080fd5b50610421610aa5565b6040518082815260200191505060405180910390f35b34801561044357600080fd5b5061044c610aab565b604051808215151515815260200191505060405180910390f35b34801561047257600080fd5b5061047b610abe565b6040518082815260200191505060405180910390f35b34801561049d57600080fd5b506104a6610ac4565b6040518082815260200191505060405180910390f35b3480156104c857600080fd5b506104d1610aca565b604051808215151515815260200191505060405180910390f35b3480156104f757600080fd5b50610500610add565b604051808273ffffffffffffffffffffffffffffffffffffffff1673ffffffffffffffffffffffffffffffffffffffff16815260200191505060405180910390f35b34801561054e57600080fd5b50610557610b03565b604051808215151515815260200191505060405180910390f35b610579610b16565b005b34801561058757600080fd5b50610590610bf7565b604051808215151515815260200191505060405180910390f35b3480156105b657600080fd5b506105bf610c0a565b6040518082815260200191505060405180910390f35b610614828260006040519080825280601f01601f19166020018201604052801561060e5781602001600182028038833980820191505090505b5061061e565b5050565b60095481565b6000801b600360008060001b815260200190815260200160002081905550505050565b60095461064c6109d8565b1161065657600080fd5b600b60149054906101000a900460ff161561067057600080fd5b600b60179054906101000a900460ff1615610816576009546106906109d8565b1161069a57600080fd5b600b60149054906101000a900460ff16156106b457600080fd5b600b60159054906101000a900460ff1680156106dc5750600b60169054906101000a900460ff165b6106e557600080fd5b6005546006541061077557600a60009054906101000a900473ffffffffffffffffffffffffffffffffffffffff1673ffffffffffffffffffffffffffffffffffffffff166108fc3073ffffffffffffffffffffffffffffffffffffffff16319081150290604051600060405180830381858888f1935050505015801561076f573d6000803e3d6000fd5b506107f6565b600b60009054906101000a900473ffffffffffffffffffffffffffffffffffffffff1673ffffffffffffffffffffffffffffffffffffffff166108fc3073ffffffffffffffffffffffffffffffffffffffff16319081150290604051600060405180830381858888f193505050501580156107f4573d6000803e3d6000fd5b505b6001600b60146101000a81548160ff0219169083151502179055506109d6565b600a60009054906101000a900473ffffffffffffffffffffffffffffffffffffffff1673ffffffffffffffffffffffffffffffffffffffff163373ffffffffffffffffffffffffffffffffffffffff1614156108f757600a60009054906101000a900473ffffffffffffffffffffffffffffffffffffffff1673ffffffffffffffffffffffffffffffffffffffff166108fc6005549081150290604051600060405180830381858888f193505050501580156108d6573d6000803e3d6000fd5b506000600b60156101000a81548160ff0219169083151502179055506109d5565b600b60009054906101000a900473ffffffffffffffffffffffffffffffffffffffff1673ffffffffffffffffffffffffffffffffffffffff163373ffffffffffffffffffffffffffffffffffffffff1614156109d457600b60009054906101000a900473ffffffffffffffffffffffffffffffffffffffff1673ffffffffffffffffffffffffffffffffffffffff166108fc6005549081150290604051600060405180830381858888f193505050501580156109b7573d6000803e3d6000fd5b506000600b60166101000a81548160ff0219169083151502179055505b5b5b565b600042905090565b600a60009054906101000a900473ffffffffffffffffffffffffffffffffffffffff1681565b600b60159054906101000a900460ff1615610a2057600080fd5b600a60009054906101000a900473ffffffffffffffffffffffffffffffffffffffff1673ffffffffffffffffffffffffffffffffffffffff163373ffffffffffffffffffffffffffffffffffffffff1614610a7a57600080fd5b6007543414610a8857600080fd5b6001600b60156101000a81548160ff021916908315150217905550565b60065481565b600b60159054906101000a900460ff1681565b60055481565b60075481565b600b60169054906101000a900460ff1681565b600b60009054906101000a900473ffffffffffffffffffffffffffffffffffffffff1681565b600b60179054906101000a900460ff1681565b600b60169054906101000a900460ff1615610b3057600080fd5b600a60009054906101000a900473ffffffffffffffffffffffffffffffffffffffff1673ffffffffffffffffffffffffffffffffffffffff163373ffffffffffffffffffffffffffffffffffffffff161415610b8b57600080fd5b6007543414610b9957600080fd5b33600b60006101000a81548173ffffffffffffffffffffffffffffffffffffffff021916908373ffffffffffffffffffffffffffffffffffffffff1602179055506001600b60166101000a81548160ff021916908315150217905550565b600b60149054906101000a900460ff1681565b6008548156fea165627a7a7230582045ac46d003bebcce951b1da55e699c971b89ff7ff17dcf5171a6a455df1ac1a50029a165627a7a72305820917d3d0516a74d7aad2e7aab878cfef7dfdf33aa993c85143cf8cadc8d665dd70029",
  "source": "pragma solidity >=0.4.21 <0.6.0;\n\nimport \"./BetPredict.sol\";\n\ncontract BetPredictorCreator {\n\n  string public test = \"hello\";\n\n  function createBet(uint256 betPrice, uint256 betAmount, uint256 deadline)\n     public\n     returns (address contractAddress)\n  {\n      // Create a new `BetPredict` contract and return its address.\n      // From the JavaScript side, the return type is\n      // `address`, as this is the closest type available in\n      // the ABI.\n      address newContract = address(new BetPredict(betPrice, betAmount, deadline));\n      return newContract;\n  }\n}\n",
  "sourcePath": "/Users/chirag/Code/predicteth/contracts/BetPredictorCreator.sol",
  "compiler": {
    "name": "solc",
    "version": "0.5.8+commit.23d335f2.Emscripten.clang"
  },
  "schemaVersion": "3.0.11",
  "updatedAt": "2019-07-13T07:10:11.583Z",
  "devdoc": {
    "methods": {}
  },
  "userdoc": {
    "methods": {}
  }
}