{
  "contractName": "BetPredict",
  "abi": [
    {
      "constant": false,
      "inputs": [
        {
          "name": "_myid",
          "type": "bytes32"
        },
        {
          "name": "_result",
          "type": "string"
        }
      ],
      "name": "__callback",
      "outputs": [],
      "payable": false,
      "stateMutability": "nonpayable",
      "type": "function"
    },
    {
      "constant": true,
      "inputs": [],
      "name": "deadline",
      "outputs": [
        {
          "name": "",
          "type": "uint256"
        }
      ],
      "payable": false,
      "stateMutability": "view",
      "type": "function"
    },
    {
      "constant": false,
      "inputs": [
        {
          "name": "_myid",
          "type": "bytes32"
        },
        {
          "name": "_result",
          "type": "string"
        },
        {
          "name": "_proof",
          "type": "bytes"
        }
      ],
      "name": "__callback",
      "outputs": [],
      "payable": false,
      "stateMutability": "nonpayable",
      "type": "function"
    },
    {
      "constant": true,
      "inputs": [],
      "name": "ownerAddress",
      "outputs": [
        {
          "name": "",
          "type": "address"
        }
      ],
      "payable": false,
      "stateMutability": "view",
      "type": "function"
    },
    {
      "constant": true,
      "inputs": [],
      "name": "deadlinePrice",
      "outputs": [
        {
          "name": "",
          "type": "uint256"
        }
      ],
      "payable": false,
      "stateMutability": "view",
      "type": "function"
    },
    {
      "constant": true,
      "inputs": [],
      "name": "ownerBetConfirmed",
      "outputs": [
        {
          "name": "",
          "type": "bool"
        }
      ],
      "payable": false,
      "stateMutability": "view",
      "type": "function"
    },
    {
      "constant": true,
      "inputs": [],
      "name": "betPrice",
      "outputs": [
        {
          "name": "",
          "type": "uint256"
        }
      ],
      "payable": false,
      "stateMutability": "view",
      "type": "function"
    },
    {
      "constant": true,
      "inputs": [],
      "name": "betAmount",
      "outputs": [
        {
          "name": "",
          "type": "uint256"
        }
      ],
      "payable": false,
      "stateMutability": "view",
      "type": "function"
    },
    {
      "constant": true,
      "inputs": [],
      "name": "opponentBetConfirmed",
      "outputs": [
        {
          "name": "",
          "type": "bool"
        }
      ],
      "payable": false,
      "stateMutability": "view",
      "type": "function"
    },
    {
      "constant": true,
      "inputs": [],
      "name": "opponentAddress",
      "outputs": [
        {
          "name": "",
          "type": "address"
        }
      ],
      "payable": false,
      "stateMutability": "view",
      "type": "function"
    },
    {
      "constant": true,
      "inputs": [],
      "name": "deadlinePriceRetrieved",
      "outputs": [
        {
          "name": "",
          "type": "bool"
        }
      ],
      "payable": false,
      "stateMutability": "view",
      "type": "function"
    },
    {
      "constant": true,
      "inputs": [],
      "name": "hasPaymentHappened",
      "outputs": [
        {
          "name": "",
          "type": "bool"
        }
      ],
      "payable": false,
      "stateMutability": "view",
      "type": "function"
    },
    {
      "inputs": [
        {
          "name": "_betPrice",
          "type": "uint256"
        },
        {
          "name": "_betAmount",
          "type": "uint256"
        },
        {
          "name": "_deadline",
          "type": "uint256"
        }
      ],
      "payable": false,
      "stateMutability": "nonpayable",
      "type": "constructor"
    },
    {
      "anonymous": false,
      "inputs": [
        {
          "indexed": false,
          "name": "nextStep",
          "type": "string"
        }
      ],
      "name": "LogConstructorInitiated",
      "type": "event"
    },
    {
      "anonymous": false,
      "inputs": [
        {
          "indexed": false,
          "name": "price",
          "type": "string"
        }
      ],
      "name": "LogPriceUpdated",
      "type": "event"
    },
    {
      "anonymous": false,
      "inputs": [
        {
          "indexed": false,
          "name": "description",
          "type": "string"
        }
      ],
      "name": "LogNewOraclizeQuery",
      "type": "event"
    },
    {
      "constant": false,
      "inputs": [],
      "name": "becomeOpponent",
      "outputs": [],
      "payable": true,
      "stateMutability": "payable",
      "type": "function"
    },
    {
      "constant": false,
      "inputs": [],
      "name": "ownerBet",
      "outputs": [],
      "payable": true,
      "stateMutability": "payable",
      "type": "function"
    },
    {
      "constant": true,
      "inputs": [],
      "name": "getTime",
      "outputs": [
        {
          "name": "",
          "type": "uint256"
        }
      ],
      "payable": false,
      "stateMutability": "view",
      "type": "function"
    },
    {
      "constant": false,
      "inputs": [],
      "name": "withdraw",
      "outputs": [],
      "payable": false,
      "stateMutability": "nonpayable",
      "type": "function"
    }
  ],
  "bytecode": "0x60806040523480156200001157600080fd5b5060405160608062001eb9833981018060405260608110156200003357600080fd5b810190808051906020019092919080519060200190929190805190602001909291905050508260058190555066038d7ea4c6800082026007819055508060088190555033600960006101000a81548173ffffffffffffffffffffffffffffffffffffffff021916908373ffffffffffffffffffffffffffffffffffffffff160217905550620000c7620000d060201b60201c565b50505062001218565b3073ffffffffffffffffffffffffffffffffffffffff16316200012e6040518060400160405280600381526020017f55524c00000000000000000000000000000000000000000000000000000000008152506200023a60201b60201c565b111562000187577f621c2856e3b87f81235f8ac8a22bbb40a0142961960710d00b2b6c380902b57e60405180806020018281038252604b81526020018062001e2e604b913960600191505060405180910390a162000238565b7f621c2856e3b87f81235f8ac8a22bbb40a0142961960710d00b2b6c380902b57e60405180806020018281038252603581526020018062001df96035913960400191505060405180910390a1620002366008546040518060400160405280600381526020017f55524c000000000000000000000000000000000000000000000000000000000081525060405180606001604052806040815260200162001e7960409139620005ea60201b60201c565b505b565b60008073ffffffffffffffffffffffffffffffffffffffff16600160009054906101000a900473ffffffffffffffffffffffffffffffffffffffff1673ffffffffffffffffffffffffffffffffffffffff161480620002cb57506000620002c9600160009054906101000a900473ffffffffffffffffffffffffffffffffffffffff1662000b5a60201b60201c565b145b15620002e557620002e3600062000b6560201b60201c565b505b600160009054906101000a900473ffffffffffffffffffffffffffffffffffffffff1673ffffffffffffffffffffffffffffffffffffffff166338cc48316040518163ffffffff1660e01b8152600401602060405180830381600087803b1580156200035057600080fd5b505af115801562000365573d6000803e3d6000fd5b505050506040513d60208110156200037c57600080fd5b810190808051906020019092919050505073ffffffffffffffffffffffffffffffffffffffff166000809054906101000a900473ffffffffffffffffffffffffffffffffffffffff1673ffffffffffffffffffffffffffffffffffffffff1614620004c957600160009054906101000a900473ffffffffffffffffffffffffffffffffffffffff1673ffffffffffffffffffffffffffffffffffffffff166338cc48316040518163ffffffff1660e01b8152600401602060405180830381600087803b1580156200044c57600080fd5b505af115801562000461573d6000803e3d6000fd5b505050506040513d60208110156200047857600080fd5b81019080805190602001909291905050506000806101000a81548173ffffffffffffffffffffffffffffffffffffffff021916908373ffffffffffffffffffffffffffffffffffffffff1602179055505b6000809054906101000a900473ffffffffffffffffffffffffffffffffffffffff1673ffffffffffffffffffffffffffffffffffffffff1663524f3889836040518263ffffffff1660e01b81526004018080602001828103825283818151815260200191508051906020019080838360005b83811015620005585780820151818401526020810190506200053b565b50505050905090810190601f168015620005865780820380516001836020036101000a031916815260200191505b5092505050602060405180830381600087803b158015620005a657600080fd5b505af1158015620005bb573d6000803e3d6000fd5b505050506040513d6020811015620005d257600080fd5b81019080805190602001909291905050509050919050565b60008073ffffffffffffffffffffffffffffffffffffffff16600160009054906101000a900473ffffffffffffffffffffffffffffffffffffffff1673ffffffffffffffffffffffffffffffffffffffff1614806200067b5750600062000679600160009054906101000a900473ffffffffffffffffffffffffffffffffffffffff1662000b5a60201b60201c565b145b15620006955762000693600062000b6560201b60201c565b505b600160009054906101000a900473ffffffffffffffffffffffffffffffffffffffff1673ffffffffffffffffffffffffffffffffffffffff166338cc48316040518163ffffffff1660e01b8152600401602060405180830381600087803b1580156200070057600080fd5b505af115801562000715573d6000803e3d6000fd5b505050506040513d60208110156200072c57600080fd5b810190808051906020019092919050505073ffffffffffffffffffffffffffffffffffffffff166000809054906101000a900473ffffffffffffffffffffffffffffffffffffffff1673ffffffffffffffffffffffffffffffffffffffff16146200087957600160009054906101000a900473ffffffffffffffffffffffffffffffffffffffff1673ffffffffffffffffffffffffffffffffffffffff166338cc48316040518163ffffffff1660e01b8152600401602060405180830381600087803b158015620007fc57600080fd5b505af115801562000811573d6000803e3d6000fd5b505050506040513d60208110156200082857600080fd5b81019080805190602001909291905050506000806101000a81548173ffffffffffffffffffffffffffffffffffffffff021916908373ffffffffffffffffffffffffffffffffffffffff1602179055505b60008060009054906101000a900473ffffffffffffffffffffffffffffffffffffffff1673ffffffffffffffffffffffffffffffffffffffff1663524f3889856040518263ffffffff1660e01b81526004018080602001828103825283818151815260200191508051906020019080838360005b838110156200090a578082015181840152602081019050620008ed565b50505050905090810190601f168015620009385780820380516001836020036101000a031916815260200191505b5092505050602060405180830381600087803b1580156200095857600080fd5b505af11580156200096d573d6000803e3d6000fd5b505050506040513d60208110156200098457600080fd5b8101908080519060200190929190505050905062030d403a02670de0b6b3a764000001811115620009bc576000801b91505062000b53565b6000809054906101000a900473ffffffffffffffffffffffffffffffffffffffff1673ffffffffffffffffffffffffffffffffffffffff1663adf59f99828787876040518563ffffffff1660e01b8152600401808481526020018060200180602001838103835285818151815260200191508051906020019080838360005b8381101562000a5857808201518184015260208101905062000a3b565b50505050905090810190601f16801562000a865780820380516001836020036101000a031916815260200191505b50838103825284818151815260200191508051906020019080838360005b8381101562000ac157808201518184015260208101905062000aa4565b50505050905090810190601f16801562000aef5780820380516001836020036101000a031916815260200191505b50955050505050506020604051808303818588803b15801562000b1157600080fd5b505af115801562000b26573d6000803e3d6000fd5b50505050506040513d602081101562000b3e57600080fd5b81019080805190602001909291905050509150505b9392505050565b6000813b9050919050565b600062000b7762000b7e60201b60201c565b9050919050565b60008062000ba6731d3b2638a7cc9f2cb3d298a3da7a90b67e5506ed62000b5a60201b60201c565b111562000c5257731d3b2638a7cc9f2cb3d298a3da7a90b67e5506ed600160006101000a81548173ffffffffffffffffffffffffffffffffffffffff021916908373ffffffffffffffffffffffffffffffffffffffff16021790555062000c486040518060400160405280600b81526020017f6574685f6d61696e6e65740000000000000000000000000000000000000000008152506200114d60201b60201c565b600190506200114a565b600062000c7973c03a2615d5efaf5f49f60b7bb6583eaec212fdf162000b5a60201b60201c565b111562000d255773c03a2615d5efaf5f49f60b7bb6583eaec212fdf1600160006101000a81548173ffffffffffffffffffffffffffffffffffffffff021916908373ffffffffffffffffffffffffffffffffffffffff16021790555062000d1b6040518060400160405280600c81526020017f6574685f726f707374656e3300000000000000000000000000000000000000008152506200114d60201b60201c565b600190506200114a565b600062000d4c73b7a07bcf2ba2f2703b24c0691b5278999c59ac7e62000b5a60201b60201c565b111562000df85773b7a07bcf2ba2f2703b24c0691b5278999c59ac7e600160006101000a81548173ffffffffffffffffffffffffffffffffffffffff021916908373ffffffffffffffffffffffffffffffffffffffff16021790555062000dee6040518060400160405280600981526020017f6574685f6b6f76616e00000000000000000000000000000000000000000000008152506200114d60201b60201c565b600190506200114a565b600062000e1f73146500cfd35b22e4a392fe0adc06de1a1368ed4862000b5a60201b60201c565b111562000ecb5773146500cfd35b22e4a392fe0adc06de1a1368ed48600160006101000a81548173ffffffffffffffffffffffffffffffffffffffff021916908373ffffffffffffffffffffffffffffffffffffffff16021790555062000ec16040518060400160405280600b81526020017f6574685f72696e6b6562790000000000000000000000000000000000000000008152506200114d60201b60201c565b600190506200114a565b600062000ef273a2998efd205fb9d4b4963afb70778d6354ad3a4162000b5a60201b60201c565b111562000f9e5773a2998efd205fb9d4b4963afb70778d6354ad3a41600160006101000a81548173ffffffffffffffffffffffffffffffffffffffff021916908373ffffffffffffffffffffffffffffffffffffffff16021790555062000f946040518060400160405280600a81526020017f6574685f676f65726c69000000000000000000000000000000000000000000008152506200114d60201b60201c565b600190506200114a565b600062000fc5736f485c8bf6fc43ea212e93bbf8ce046c7f1cb47562000b5a60201b60201c565b11156200102b57736f485c8bf6fc43ea212e93bbf8ce046c7f1cb475600160006101000a81548173ffffffffffffffffffffffffffffffffffffffff021916908373ffffffffffffffffffffffffffffffffffffffff160217905550600190506200114a565b6000620010527320e12a1f859b3feae5fb2a0a32c18f5a65555bbf62000b5a60201b60201c565b1115620010b8577320e12a1f859b3feae5fb2a0a32c18f5a65555bbf600160006101000a81548173ffffffffffffffffffffffffffffffffffffffff021916908373ffffffffffffffffffffffffffffffffffffffff160217905550600190506200114a565b6000620010df7351efaf4c8b3c9afbd5ab9f4bbc82784ab6ef8faa62000b5a60201b60201c565b111562001145577351efaf4c8b3c9afbd5ab9f4bbc82784ab6ef8faa600160006101000a81548173ffffffffffffffffffffffffffffffffffffffff021916908373ffffffffffffffffffffffffffffffffffffffff160217905550600190506200114a565b600090505b90565b80600290805190602001906200116592919062001169565b5050565b828054600181600116156101000203166002900490600052602060002090601f016020900481019282601f10620011ac57805160ff1916838001178555620011dd565b82800160010185558215620011dd579182015b82811115620011dc578251825591602001919060010190620011bf565b5b509050620011ec9190620011f0565b5090565b6200121591905b8082111562001211576000816000905550600101620011f7565b5090565b90565b610bd180620012286000396000f3fe6080604052600436106100f35760003560e01c8063ad8d422f1161008a578063d408228111610059578063d4082281146104e0578063e00539b114610537578063e3282f3f14610566578063ef4295fe14610570576100f3565b8063ad8d422f1461042c578063cfd8a1751461045b578063d24257c014610486578063d2757459146104b1576100f3565b8063557ed1ba116100c6578063557ed1ba146103755780638f84aa09146103a0578063a56ba5b6146103f7578063a596ebc614610401576100f3565b806327dc297e146100f857806329dcb0cf146101ca57806338bbfa50146101f55780633ccfd60b1461035e575b600080fd5b34801561010457600080fd5b506101c86004803603604081101561011b57600080fd5b81019080803590602001909291908035906020019064010000000081111561014257600080fd5b82018360208201111561015457600080fd5b8035906020019184600183028401116401000000008311171561017657600080fd5b91908080601f016020809104026020016040519081016040528093929190818152602001838380828437600081840152601f19601f82011690508083019250505050505050919291929050505061059f565b005b3480156101d657600080fd5b506101df6105e2565b6040518082815260200191505060405180910390f35b34801561020157600080fd5b5061035c6004803603606081101561021857600080fd5b81019080803590602001909291908035906020019064010000000081111561023f57600080fd5b82018360208201111561025157600080fd5b8035906020019184600183028401116401000000008311171561027357600080fd5b91908080601f016020809104026020016040519081016040528093929190818152602001838380828437600081840152601f19601f820116905080830192505050505050509192919290803590602001906401000000008111156102d657600080fd5b8201836020820111156102e857600080fd5b8035906020019184600183028401116401000000008311171561030a57600080fd5b91908080601f016020809104026020016040519081016040528093929190818152602001838380828437600081840152601f19601f8201169050808301925050505050505091929192905050506105e8565b005b34801561036a57600080fd5b5061037361060b565b005b34801561038157600080fd5b5061038a610973565b6040518082815260200191505060405180910390f35b3480156103ac57600080fd5b506103b561097b565b604051808273ffffffffffffffffffffffffffffffffffffffff1673ffffffffffffffffffffffffffffffffffffffff16815260200191505060405180910390f35b6103ff6109a1565b005b34801561040d57600080fd5b50610416610a40565b6040518082815260200191505060405180910390f35b34801561043857600080fd5b50610441610a46565b604051808215151515815260200191505060405180910390f35b34801561046757600080fd5b50610470610a59565b6040518082815260200191505060405180910390f35b34801561049257600080fd5b5061049b610a5f565b6040518082815260200191505060405180910390f35b3480156104bd57600080fd5b506104c6610a65565b604051808215151515815260200191505060405180910390f35b3480156104ec57600080fd5b506104f5610a78565b604051808273ffffffffffffffffffffffffffffffffffffffff1673ffffffffffffffffffffffffffffffffffffffff16815260200191505060405180910390f35b34801561054357600080fd5b5061054c610a9e565b604051808215151515815260200191505060405180910390f35b61056e610ab1565b005b34801561057c57600080fd5b50610585610b92565b604051808215151515815260200191505060405180910390f35b6105de828260006040519080825280601f01601f1916602001820160405280156105d85781602001600182028038833980820191505090505b506105e8565b5050565b60085481565b6000801b600360008060001b815260200190815260200160002081905550505050565b600a60179054906101000a900460ff16156107b15760085461062b610973565b1161063557600080fd5b600a60149054906101000a900460ff161561064f57600080fd5b600a60159054906101000a900460ff1680156106775750600a60169054906101000a900460ff165b61068057600080fd5b6005546006541061071057600960009054906101000a900473ffffffffffffffffffffffffffffffffffffffff1673ffffffffffffffffffffffffffffffffffffffff166108fc3073ffffffffffffffffffffffffffffffffffffffff16319081150290604051600060405180830381858888f1935050505015801561070a573d6000803e3d6000fd5b50610791565b600a60009054906101000a900473ffffffffffffffffffffffffffffffffffffffff1673ffffffffffffffffffffffffffffffffffffffff166108fc3073ffffffffffffffffffffffffffffffffffffffff16319081150290604051600060405180830381858888f1935050505015801561078f573d6000803e3d6000fd5b505b6001600a60146101000a81548160ff021916908315150217905550610971565b600960009054906101000a900473ffffffffffffffffffffffffffffffffffffffff1673ffffffffffffffffffffffffffffffffffffffff163373ffffffffffffffffffffffffffffffffffffffff16141561089257600960009054906101000a900473ffffffffffffffffffffffffffffffffffffffff1673ffffffffffffffffffffffffffffffffffffffff166108fc6007549081150290604051600060405180830381858888f19350505050158015610871573d6000803e3d6000fd5b506000600a60156101000a81548160ff021916908315150217905550610970565b600a60009054906101000a900473ffffffffffffffffffffffffffffffffffffffff1673ffffffffffffffffffffffffffffffffffffffff163373ffffffffffffffffffffffffffffffffffffffff16141561096f57600a60009054906101000a900473ffffffffffffffffffffffffffffffffffffffff1673ffffffffffffffffffffffffffffffffffffffff166108fc6007549081150290604051600060405180830381858888f19350505050158015610952573d6000803e3d6000fd5b506000600a60166101000a81548160ff0219169083151502179055505b5b5b565b600042905090565b600960009054906101000a900473ffffffffffffffffffffffffffffffffffffffff1681565b600a60159054906101000a900460ff16156109bb57600080fd5b600960009054906101000a900473ffffffffffffffffffffffffffffffffffffffff1673ffffffffffffffffffffffffffffffffffffffff163373ffffffffffffffffffffffffffffffffffffffff1614610a1557600080fd5b6007543414610a2357600080fd5b6001600a60156101000a81548160ff021916908315150217905550565b60065481565b600a60159054906101000a900460ff1681565b60055481565b60075481565b600a60169054906101000a900460ff1681565b600a60009054906101000a900473ffffffffffffffffffffffffffffffffffffffff1681565b600a60179054906101000a900460ff1681565b600a60169054906101000a900460ff1615610acb57600080fd5b600960009054906101000a900473ffffffffffffffffffffffffffffffffffffffff1673ffffffffffffffffffffffffffffffffffffffff163373ffffffffffffffffffffffffffffffffffffffff161415610b2657600080fd5b6007543414610b3457600080fd5b33600a60006101000a81548173ffffffffffffffffffffffffffffffffffffffff021916908373ffffffffffffffffffffffffffffffffffffffff1602179055506001600a60166101000a81548160ff021916908315150217905550565b600a60149054906101000a900460ff168156fea165627a7a72305820009de10bfbc6d07e2cd816de111122001c279c34f30f27616c7983eb861ffb63002950726f7661626c65207175657279207761732073656e742c207374616e64696e6720627920666f722074686520616e737765722e2e50726f7661626c6520717565727920776173204e4f542073656e742c20706c656173652061646420736f6d652045544820746f20636f76657220666f7220746865207175657279206665656a736f6e2868747470733a2f2f6170692e70726f2e636f696e626173652e636f6d2f70726f64756374732f4554482d5553442f7469636b6572292e7072696365",
  "source": "pragma solidity >=0.4.21 <0.6.0;\n\nimport \"./SafeMath.sol\";\nimport \"./oracalizeApi.sol\";\n\ncontract BetPredict is usingOraclize {\n  using SafeMath for uint;\n\n  uint256 public betPrice;\n  uint256 public deadlinePrice;\n  uint256 public betAmount;\n  uint256 public deadline;\n\n  address payable public ownerAddress;\n  address payable public opponentAddress;\n\n  bool public hasPaymentHappened;\n  bool public ownerBetConfirmed;\n  bool public opponentBetConfirmed;\n  bool public deadlinePriceRetrieved;\n\n  event LogConstructorInitiated(string nextStep);\n  event LogPriceUpdated(string price);\n  event LogNewOraclizeQuery(string description);\n\n  constructor( uint256 _betPrice, uint256 _betAmount, uint256 _deadline) public {\n\t\tbetPrice = _betPrice;\n    betAmount = _betAmount * .001 ether;\n    deadline = _deadline;\n\n    ownerAddress = msg.sender;\n    _updatePrice();\n\t}\n\n  modifier requireOpponentBetNotMade() {\n    require(!opponentBetConfirmed);\n    _;\n  }\n\n  modifier requireOwnerBetNotMade() {\n    require(!ownerBetConfirmed);\n    _;\n  }\n\n  function becomeOpponent() public payable requireOpponentBetNotMade {\n    require(msg.sender != address(ownerAddress));\n    require(msg.value == betAmount);\n    opponentAddress = msg.sender;\n    opponentBetConfirmed = true;\n  }\n\n  function ownerBet() public payable requireOwnerBetNotMade {\n    require(msg.sender == address(ownerAddress));\n    require(msg.value == betAmount);\n\n    ownerBetConfirmed = true;\n  }\n\n  function getTime() public view returns (uint256) {\n\t\treturn now;\n\t}\n\n  function withdraw() public {\n    if (deadlinePriceRetrieved) {\n      require(getTime() > deadline);\n      require(!hasPaymentHappened);\n      require(ownerBetConfirmed && opponentBetConfirmed);\n      if (deadlinePrice >= betPrice) {\n        ownerAddress.transfer(address(this).balance);\n      } else {\n        opponentAddress.transfer(address(this).balance);\n      }\n      hasPaymentHappened = true;\n    } else {\n      if (msg.sender == address(ownerAddress)) {\n        ownerAddress.transfer(betAmount);\n        ownerBetConfirmed = false;\n      } else if (msg.sender == address(opponentAddress)) {\n        opponentAddress.transfer(betAmount);\n        opponentBetConfirmed = false;\n      }\n    }\n\t}\n\n  function _callback(bytes32 myid, string memory result) private {\n        if (msg.sender != oraclize_cbAddress()) revert();\n        deadlinePrice = safeParseInt(result);\n        deadlinePriceRetrieved = true;\n        emit LogPriceUpdated(result);\n    }\n\n    function _updatePrice() private {\n          if (oraclize_getPrice(\"URL\") > address(this).balance) {\n              emit LogNewOraclizeQuery(\"Provable query was NOT sent, please add some ETH to cover for the query fee\");\n          } else {\n              emit LogNewOraclizeQuery(\"Provable query was sent, standing by for the answer..\");\n              oraclize_query(deadline, \"URL\", \"json(https://api.pro.coinbase.com/products/ETH-USD/ticker).price\");\n          }\n    }\n}\n",
  "sourcePath": "/Users/chirag/Code/predicteth/contracts/BetPredict.sol",
  "compiler": {
    "name": "solc",
    "version": "0.5.8+commit.23d335f2.Emscripten.clang"
  },
  "schemaVersion": "3.0.11",
  "updatedAt": "2019-07-13T18:53:45.036Z",
  "devdoc": {
    "methods": {
      "__callback(bytes32,string)": {
        "details": "The following `__callback` functions are just placeholders ideally     meant to be defined in child contract when proofs are used.     The function bodies simply silence compiler warnings."
      }
    }
  },
  "userdoc": {
    "methods": {}
  }
}